{
  "_format": "hh-sol-artifact-1",
  "contractName": "MovieTicket",
  "sourceName": "contracts/ticekting_test.sol",
  "abi": [
    {
      "inputs": [
        {
          "internalType": "uint256",
          "name": "_ticketPrice",
          "type": "uint256"
        },
        {
          "internalType": "uint256",
          "name": "_totalTickets",
          "type": "uint256"
        }
      ],
      "stateMutability": "nonpayable",
      "type": "constructor"
    },
    {
      "anonymous": false,
      "inputs": [
        {
          "indexed": false,
          "internalType": "uint256",
          "name": "newPrice",
          "type": "uint256"
        }
      ],
      "name": "TicketPriceUpdated",
      "type": "event"
    },
    {
      "anonymous": false,
      "inputs": [
        {
          "indexed": true,
          "internalType": "address",
          "name": "buyer",
          "type": "address"
        },
        {
          "indexed": true,
          "internalType": "uint256",
          "name": "ticketId",
          "type": "uint256"
        }
      ],
      "name": "TicketPurchased",
      "type": "event"
    },
    {
      "anonymous": false,
      "inputs": [
        {
          "indexed": true,
          "internalType": "address",
          "name": "from",
          "type": "address"
        },
        {
          "indexed": true,
          "internalType": "address",
          "name": "to",
          "type": "address"
        },
        {
          "indexed": true,
          "internalType": "uint256",
          "name": "ticketId",
          "type": "uint256"
        }
      ],
      "name": "TicketTransferred",
      "type": "event"
    },
    {
      "anonymous": false,
      "inputs": [
        {
          "indexed": false,
          "internalType": "uint256",
          "name": "newTotal",
          "type": "uint256"
        }
      ],
      "name": "TotalTicketsUpdated",
      "type": "event"
    },
    {
      "stateMutability": "payable",
      "type": "fallback"
    },
    {
      "inputs": [],
      "name": "admin",
      "outputs": [
        {
          "internalType": "address",
          "name": "",
          "type": "address"
        }
      ],
      "stateMutability": "view",
      "type": "function"
    },
    {
      "inputs": [
        {
          "internalType": "uint256",
          "name": "",
          "type": "uint256"
        }
      ],
      "name": "availableMovies",
      "outputs": [
        {
          "internalType": "string",
          "name": "",
          "type": "string"
        }
      ],
      "stateMutability": "view",
      "type": "function"
    },
    {
      "inputs": [
        {
          "internalType": "uint256",
          "name": "",
          "type": "uint256"
        }
      ],
      "name": "availableShowtimes",
      "outputs": [
        {
          "internalType": "string",
          "name": "",
          "type": "string"
        }
      ],
      "stateMutability": "view",
      "type": "function"
    },
    {
      "inputs": [
        {
          "internalType": "string",
          "name": "_movieTitle",
          "type": "string"
        },
        {
          "internalType": "string",
          "name": "_showtime",
          "type": "string"
        },
        {
          "internalType": "string",
          "name": "_seat",
          "type": "string"
        }
      ],
      "name": "buyTicket",
      "outputs": [],
      "stateMutability": "payable",
      "type": "function"
    },
    {
      "inputs": [],
      "name": "deleteMyTicket",
      "outputs": [],
      "stateMutability": "nonpayable",
      "type": "function"
    },
    {
      "inputs": [],
      "name": "getBalance",
      "outputs": [
        {
          "internalType": "uint256",
          "name": "",
          "type": "uint256"
        }
      ],
      "stateMutability": "view",
      "type": "function"
    },
    {
      "inputs": [],
      "name": "getMyTicket",
      "outputs": [
        {
          "internalType": "bool",
          "name": "hasTicket",
          "type": "bool"
        },
        {
          "internalType": "uint256",
          "name": "ticketId",
          "type": "uint256"
        },
        {
          "internalType": "string",
          "name": "movie",
          "type": "string"
        },
        {
          "internalType": "string",
          "name": "time",
          "type": "string"
        },
        {
          "internalType": "string",
          "name": "seat",
          "type": "string"
        }
      ],
      "stateMutability": "view",
      "type": "function"
    },
    {
      "inputs": [
        {
          "internalType": "uint256",
          "name": "_price",
          "type": "uint256"
        }
      ],
      "name": "setTicketPrice",
      "outputs": [],
      "stateMutability": "nonpayable",
      "type": "function"
    },
    {
      "inputs": [
        {
          "internalType": "uint256",
          "name": "_total",
          "type": "uint256"
        }
      ],
      "name": "setTotalTickets",
      "outputs": [],
      "stateMutability": "nonpayable",
      "type": "function"
    },
    {
      "inputs": [],
      "name": "ticketPrice",
      "outputs": [
        {
          "internalType": "uint256",
          "name": "",
          "type": "uint256"
        }
      ],
      "stateMutability": "view",
      "type": "function"
    },
    {
      "inputs": [
        {
          "internalType": "uint256",
          "name": "",
          "type": "uint256"
        }
      ],
      "name": "tickets",
      "outputs": [
        {
          "internalType": "address",
          "name": "owner",
          "type": "address"
        },
        {
          "internalType": "bool",
          "name": "isUsed",
          "type": "bool"
        },
        {
          "internalType": "string",
          "name": "movieTitle",
          "type": "string"
        },
        {
          "internalType": "string",
          "name": "showtime",
          "type": "string"
        },
        {
          "internalType": "string",
          "name": "seat",
          "type": "string"
        }
      ],
      "stateMutability": "view",
      "type": "function"
    },
    {
      "inputs": [],
      "name": "ticketsSold",
      "outputs": [
        {
          "internalType": "uint256",
          "name": "",
          "type": "uint256"
        }
      ],
      "stateMutability": "view",
      "type": "function"
    },
    {
      "inputs": [],
      "name": "totalTickets",
      "outputs": [
        {
          "internalType": "uint256",
          "name": "",
          "type": "uint256"
        }
      ],
      "stateMutability": "view",
      "type": "function"
    },
    {
      "inputs": [
        {
          "internalType": "uint256",
          "name": "ticketId",
          "type": "uint256"
        },
        {
          "internalType": "address",
          "name": "_to",
          "type": "address"
        }
      ],
      "name": "transferTicket",
      "outputs": [],
      "stateMutability": "nonpayable",
      "type": "function"
    },
    {
      "inputs": [
        {
          "internalType": "address",
          "name": "_user",
          "type": "address"
        }
      ],
      "name": "verifyOwnership",
      "outputs": [
        {
          "internalType": "bool",
          "name": "hasTicket",
          "type": "bool"
        },
        {
          "internalType": "uint256",
          "name": "ticketId",
          "type": "uint256"
        },
        {
          "internalType": "string",
          "name": "movie",
          "type": "string"
        },
        {
          "internalType": "string",
          "name": "time",
          "type": "string"
        },
        {
          "internalType": "string",
          "name": "seat",
          "type": "string"
        }
      ],
      "stateMutability": "view",
      "type": "function"
    },
    {
      "stateMutability": "payable",
      "type": "receive"
    }
  ],
  "bytecode": "0x6080604052735b38da6a701c568545dcfcb03fcb875f56beddc46000806101000a81548173ffffffffffffffffffffffffffffffffffffffff021916908373ffffffffffffffffffffffffffffffffffffffff1602179055506040518060a001604052806040518060400160405280601f81526020017f476f647a696c6c612078204b6f6e673a20546865204e657720456d706972650081525081526020016040518060400160405280600b81526020017f4f7070656e6865696d657200000000000000000000000000000000000000000081525081526020016040518060400160405280600c81526020017f496e73696465204f75742032000000000000000000000000000000000000000081525081526020016040518060400160405280601481526020017f44656164706f6f6c202620576f6c766572696e6500000000000000000000000081525081526020016040518060400160405280600c81526020017f546865204261746d616e2032000000000000000000000000000000000000000081525081525060049060056101989291906102a7565b5060405180606001604052806040518060400160405280600581526020017f31303a303000000000000000000000000000000000000000000000000000000081525081526020016040518060400160405280600581526020017f31343a303000000000000000000000000000000000000000000000000000000081525081526020016040518060400160405280600581526020017f32303a30300000000000000000000000000000000000000000000000000000008152508152506005906003610263929190610300565b5034801561027057600080fd5b50604051612bd6380380612bd683398181016040528101906102929190610415565b8160018190555080600281905550505061076d565b8280548282559060005260206000209081019282156102ef579160200282015b828111156102ee5782518290816102de919061069b565b50916020019190600101906102c7565b5b5090506102fc9190610359565b5090565b828054828255906000526020600020908101928215610348579160200282015b82811115610347578251829081610337919061069b565b5091602001919060010190610320565b5b5090506103559190610359565b5090565b5b808211156103795760008181610370919061037d565b5060010161035a565b5090565b508054610389906104be565b6000825580601f1061039b57506103ba565b601f0160209004906000526020600020908101906103b991906103bd565b5b50565b5b808211156103d65760008160009055506001016103be565b5090565b600080fd5b6000819050919050565b6103f2816103df565b81146103fd57600080fd5b50565b60008151905061040f816103e9565b92915050565b6000806040838503121561042c5761042b6103da565b5b600061043a85828601610400565b925050602061044b85828601610400565b9150509250929050565b600081519050919050565b7f4e487b7100000000000000000000000000000000000000000000000000000000600052604160045260246000fd5b7f4e487b7100000000000000000000000000000000000000000000000000000000600052602260045260246000fd5b600060028204905060018216806104d657607f821691505b6020821081036104e9576104e861048f565b5b50919050565b60008190508160005260206000209050919050565b60006020601f8301049050919050565b600082821b905092915050565b6000600883026105517fffffffffffffffffffffffffffffffffffffffffffffffffffffffffffffffff82610514565b61055b8683610514565b95508019841693508086168417925050509392505050565b6000819050919050565b600061059861059361058e846103df565b610573565b6103df565b9050919050565b6000819050919050565b6105b28361057d565b6105c66105be8261059f565b848454610521565b825550505050565b600090565b6105db6105ce565b6105e68184846105a9565b505050565b5b8181101561060a576105ff6000826105d3565b6001810190506105ec565b5050565b601f82111561064f57610620816104ef565b61062984610504565b81016020851015610638578190505b61064c61064485610504565b8301826105eb565b50505b505050565b600082821c905092915050565b600061067260001984600802610654565b1980831691505092915050565b600061068b8383610661565b9150826002028217905092915050565b6106a482610455565b67ffffffffffffffff8111156106bd576106bc610460565b5b6106c782546104be565b6106d282828561060e565b600060209050601f83116001811461070557600084156106f3578287015190505b6106fd858261067f565b865550610765565b601f198416610713866104ef565b60005b8281101561073b57848901518255600182019150602085019450602081019050610716565b868310156107585784890151610754601f891682610661565b8355505b6001600288020188555050505b505050505050565b61245a8061077c6000396000f3fe6080604052600436106100ec5760003560e01c806350b447121161008a578063a1c0005911610059578063a1c00059146102e3578063ae890c0a14610320578063dd11247e14610349578063f851a44014610374576100ed565b806350b4471214610232578063679ebf1a14610273578063726021be1461029c5780638f15024f146102b8576100ed565b80632cc9c151116100c65780632cc9c1511461016e5780633e5ea680146101af5780633f7daf81146101c65780634aa4ad90146101f5576100ed565b806312065fe0146100ef5780631209b1f61461011a5780631598165014610145576100ed565b5b005b3480156100fb57600080fd5b5061010461039f565b60405161011191906116a1565b60405180910390f35b34801561012657600080fd5b5061012f6103a7565b60405161013c91906116a1565b60405180910390f35b34801561015157600080fd5b5061016c600480360381019061016791906116fc565b6103ad565b005b34801561017a57600080fd5b5061019560048036038101906101909190611787565b61047c565b6040516101a695949392919061185f565b60405180910390f35b3480156101bb57600080fd5b506101c4610787565b005b3480156101d257600080fd5b506101db6108df565b6040516101ec95949392919061185f565b60405180910390f35b34801561020157600080fd5b5061021c600480360381019061021791906116fc565b610be8565b60405161022991906118c7565b60405180910390f35b34801561023e57600080fd5b50610259600480360381019061025491906116fc565b610c94565b60405161026a9594939291906118f8565b60405180910390f35b34801561027f57600080fd5b5061029a60048036038101906102959190611960565b610e9f565b005b6102b660048036038101906102b19190611ad5565b61112d565b005b3480156102c457600080fd5b506102cd611498565b6040516102da91906116a1565b60405180910390f35b3480156102ef57600080fd5b5061030a600480360381019061030591906116fc565b61149e565b60405161031791906118c7565b60405180910390f35b34801561032c57600080fd5b50610347600480360381019061034291906116fc565b61154a565b005b34801561035557600080fd5b5061035e61165e565b60405161036b91906116a1565b60405180910390f35b34801561038057600080fd5b50610389611664565b6040516103969190611b7c565b60405180910390f35b600047905090565b60015481565b60008054906101000a900473ffffffffffffffffffffffffffffffffffffffff1673ffffffffffffffffffffffffffffffffffffffff163373ffffffffffffffffffffffffffffffffffffffff161461043b576040517f08c379a000000000000000000000000000000000000000000000000000000000815260040161043290611be3565b60405180910390fd5b806001819055507f7429795511c1ec5ebcc0e6839095ec18f13fce25cdc7c90da9d8a016584a1dbe8160405161047191906116a1565b60405180910390a150565b600080606080606060005b60068054905081101561073f578673ffffffffffffffffffffffffffffffffffffffff16600682815481106104bf576104be611c03565b5b906000526020600020906004020160000160009054906101000a900473ffffffffffffffffffffffffffffffffffffffff1673ffffffffffffffffffffffffffffffffffffffff1603610732576001816006838154811061052357610522611c03565b5b90600052602060002090600402016001016006848154811061054857610547611c03565b5b90600052602060002090600402016002016006858154811061056d5761056c611c03565b5b906000526020600020906004020160030182805461058a90611c61565b80601f01602080910402602001604051908101604052809291908181526020018280546105b690611c61565b80156106035780601f106105d857610100808354040283529160200191610603565b820191906000526020600020905b8154815290600101906020018083116105e657829003601f168201915b5050505050925081805461061690611c61565b80601f016020809104026020016040519081016040528092919081815260200182805461064290611c61565b801561068f5780601f106106645761010080835404028352916020019161068f565b820191906000526020600020905b81548152906001019060200180831161067257829003601f168201915b505050505091508080546106a290611c61565b80601f01602080910402602001604051908101604052809291908181526020018280546106ce90611c61565b801561071b5780601f106106f05761010080835404028352916020019161071b565b820191906000526020600020905b8154815290600101906020018083116106fe57829003601f168201915b50505050509050955095509550955095505061077e565b8080600101915050610487565b50600080604051806020016040528060008152506040518060200160405280600081525060405180602001604052806000815250945094509450945094505b91939590929450565b60005b6006805490508110156108dc573373ffffffffffffffffffffffffffffffffffffffff16600682815481106107c2576107c1611c03565b5b906000526020600020906004020160000160009054906101000a900473ffffffffffffffffffffffffffffffffffffffff1673ffffffffffffffffffffffffffffffffffffffff16036108cf5760006006828154811061082557610824611c03565b5b906000526020600020906004020160000160006101000a81548173ffffffffffffffffffffffffffffffffffffffff021916908373ffffffffffffffffffffffffffffffffffffffff16021790555060016006828154811061088a57610889611c03565b5b906000526020600020906004020160000160146101000a81548160ff021916908315150217905550600360008154809291906108c590611cc1565b91905055506108dc565b808060010191505061078a565b50565b600080606080606060005b600680549050811015610ba2573373ffffffffffffffffffffffffffffffffffffffff166006828154811061092257610921611c03565b5b906000526020600020906004020160000160009054906101000a900473ffffffffffffffffffffffffffffffffffffffff1673ffffffffffffffffffffffffffffffffffffffff1603610b95576001816006838154811061098657610985611c03565b5b9060005260206000209060040201600101600684815481106109ab576109aa611c03565b5b9060005260206000209060040201600201600685815481106109d0576109cf611c03565b5b90600052602060002090600402016003018280546109ed90611c61565b80601f0160208091040260200160405190810160405280929190818152602001828054610a1990611c61565b8015610a665780601f10610a3b57610100808354040283529160200191610a66565b820191906000526020600020905b815481529060010190602001808311610a4957829003601f168201915b50505050509250818054610a7990611c61565b80601f0160208091040260200160405190810160405280929190818152602001828054610aa590611c61565b8015610af25780601f10610ac757610100808354040283529160200191610af2565b820191906000526020600020905b815481529060010190602001808311610ad557829003601f168201915b50505050509150808054610b0590611c61565b80601f0160208091040260200160405190810160405280929190818152602001828054610b3190611c61565b8015610b7e5780601f10610b5357610100808354040283529160200191610b7e565b820191906000526020600020905b815481529060010190602001808311610b6157829003601f168201915b505050505090509550955095509550955050610be1565b80806001019150506108ea565b50600080604051806020016040528060008152506040518060200160405280600081525060405180602001604052806000815250945094509450945094505b9091929394565b60048181548110610bf857600080fd5b906000526020600020016000915090508054610c1390611c61565b80601f0160208091040260200160405190810160405280929190818152602001828054610c3f90611c61565b8015610c8c5780601f10610c6157610100808354040283529160200191610c8c565b820191906000526020600020905b815481529060010190602001808311610c6f57829003601f168201915b505050505081565b60068181548110610ca457600080fd5b90600052602060002090600402016000915090508060000160009054906101000a900473ffffffffffffffffffffffffffffffffffffffff16908060000160149054906101000a900460ff1690806001018054610d0090611c61565b80601f0160208091040260200160405190810160405280929190818152602001828054610d2c90611c61565b8015610d795780601f10610d4e57610100808354040283529160200191610d79565b820191906000526020600020905b815481529060010190602001808311610d5c57829003601f168201915b505050505090806002018054610d8e90611c61565b80601f0160208091040260200160405190810160405280929190818152602001828054610dba90611c61565b8015610e075780601f10610ddc57610100808354040283529160200191610e07565b820191906000526020600020905b815481529060010190602001808311610dea57829003601f168201915b505050505090806003018054610e1c90611c61565b80601f0160208091040260200160405190810160405280929190818152602001828054610e4890611c61565b8015610e955780601f10610e6a57610100808354040283529160200191610e95565b820191906000526020600020905b815481529060010190602001808311610e7857829003601f168201915b5050505050905085565b6006805490508210610ee6576040517f08c379a0000000000000000000000000000000000000000000000000000000008152600401610edd90611d36565b60405180910390fd5b3373ffffffffffffffffffffffffffffffffffffffff1660068381548110610f1157610f10611c03565b5b906000526020600020906004020160000160009054906101000a900473ffffffffffffffffffffffffffffffffffffffff1673ffffffffffffffffffffffffffffffffffffffff1614610f99576040517f08c379a0000000000000000000000000000000000000000000000000000000008152600401610f9090611da2565b60405180910390fd5b60005b600680549050811015611069578173ffffffffffffffffffffffffffffffffffffffff1660068281548110610fd457610fd3611c03565b5b906000526020600020906004020160000160009054906101000a900473ffffffffffffffffffffffffffffffffffffffff1673ffffffffffffffffffffffffffffffffffffffff160361105c576040517f08c379a000000000000000000000000000000000000000000000000000000000815260040161105390611e0e565b60405180910390fd5b8080600101915050610f9c565b50806006838154811061107f5761107e611c03565b5b906000526020600020906004020160000160006101000a81548173ffffffffffffffffffffffffffffffffffffffff021916908373ffffffffffffffffffffffffffffffffffffffff160217905550818173ffffffffffffffffffffffffffffffffffffffff163373ffffffffffffffffffffffffffffffffffffffff167f17fe3deddce525fa12700a731e77ea94c319000ee656076e9e3f0d21638db76660405160405180910390a45050565b60025460035410611173576040517f08c379a000000000000000000000000000000000000000000000000000000000815260040161116a90611e7a565b60405180910390fd5b60015434146111b7576040517f08c379a00000000000000000000000000000000000000000000000000000000081526004016111ae90611ee6565b60405180910390fd5b60005b600680549050811015611309573373ffffffffffffffffffffffffffffffffffffffff16600682815481106111f2576111f1611c03565b5b906000526020600020906004020160000160009054906101000a900473ffffffffffffffffffffffffffffffffffffffff1673ffffffffffffffffffffffffffffffffffffffff160361127a576040517f08c379a000000000000000000000000000000000000000000000000000000000815260040161127190611f52565b60405180910390fd5b81805190602001206006828154811061129657611295611c03565b5b90600052602060002090600402016003016040516112b49190612015565b6040518091039020036112fc576040517f08c379a00000000000000000000000000000000000000000000000000000000081526004016112f390612078565b60405180910390fd5b80806001019150506111ba565b5060066040518060a001604052803373ffffffffffffffffffffffffffffffffffffffff16815260200160001515815260200185815260200184815260200183815250908060018154018082558091505060019003906000526020600020906004020160009091909190915060008201518160000160006101000a81548173ffffffffffffffffffffffffffffffffffffffff021916908373ffffffffffffffffffffffffffffffffffffffff16021790555060208201518160000160146101000a81548160ff02191690831515021790555060408201518160010190816113f19190612244565b5060608201518160020190816114079190612244565b50608082015181600301908161141d9190612244565b505050600060016006805490506114349190612316565b9050600360008154809291906114499061234a565b9190505550803373ffffffffffffffffffffffffffffffffffffffff167f0668f5b446eb814fe35b3206f43f14bd8567ba04ddaf7a3ee56516929ab22ccb60405160405180910390a350505050565b60035481565b600581815481106114ae57600080fd5b9060005260206000200160009150905080546114c990611c61565b80601f01602080910402602001604051908101604052809291908181526020018280546114f590611c61565b80156115425780601f1061151757610100808354040283529160200191611542565b820191906000526020600020905b81548152906001019060200180831161152557829003601f168201915b505050505081565b60008054906101000a900473ffffffffffffffffffffffffffffffffffffffff1673ffffffffffffffffffffffffffffffffffffffff163373ffffffffffffffffffffffffffffffffffffffff16146115d8576040517f08c379a00000000000000000000000000000000000000000000000000000000081526004016115cf90611be3565b60405180910390fd5b60035481101561161d576040517f08c379a000000000000000000000000000000000000000000000000000000000815260040161161490612404565b60405180910390fd5b806002819055507f0d87b910dfebbfcc6689869fac6410176f8ef1b1d530fcd0e33000e1ffaf17ab8160405161165391906116a1565b60405180910390a150565b60025481565b60008054906101000a900473ffffffffffffffffffffffffffffffffffffffff1681565b6000819050919050565b61169b81611688565b82525050565b60006020820190506116b66000830184611692565b92915050565b6000604051905090565b600080fd5b600080fd5b6116d981611688565b81146116e457600080fd5b50565b6000813590506116f6816116d0565b92915050565b600060208284031215611712576117116116c6565b5b6000611720848285016116e7565b91505092915050565b600073ffffffffffffffffffffffffffffffffffffffff82169050919050565b600061175482611729565b9050919050565b61176481611749565b811461176f57600080fd5b50565b6000813590506117818161175b565b92915050565b60006020828403121561179d5761179c6116c6565b5b60006117ab84828501611772565b91505092915050565b60008115159050919050565b6117c9816117b4565b82525050565b600081519050919050565b600082825260208201905092915050565b60005b838110156118095780820151818401526020810190506117ee565b60008484015250505050565b6000601f19601f8301169050919050565b6000611831826117cf565b61183b81856117da565b935061184b8185602086016117eb565b61185481611815565b840191505092915050565b600060a08201905061187460008301886117c0565b6118816020830187611692565b81810360408301526118938186611826565b905081810360608301526118a78185611826565b905081810360808301526118bb8184611826565b90509695505050505050565b600060208201905081810360008301526118e18184611826565b905092915050565b6118f281611749565b82525050565b600060a08201905061190d60008301886118e9565b61191a60208301876117c0565b818103604083015261192c8186611826565b905081810360608301526119408185611826565b905081810360808301526119548184611826565b90509695505050505050565b60008060408385031215611977576119766116c6565b5b6000611985858286016116e7565b925050602061199685828601611772565b9150509250929050565b600080fd5b600080fd5b7f4e487b7100000000000000000000000000000000000000000000000000000000600052604160045260246000fd5b6119e282611815565b810181811067ffffffffffffffff82111715611a0157611a006119aa565b5b80604052505050565b6000611a146116bc565b9050611a2082826119d9565b919050565b600067ffffffffffffffff821115611a4057611a3f6119aa565b5b611a4982611815565b9050602081019050919050565b82818337600083830152505050565b6000611a78611a7384611a25565b611a0a565b905082815260208101848484011115611a9457611a936119a5565b5b611a9f848285611a56565b509392505050565b600082601f830112611abc57611abb6119a0565b5b8135611acc848260208601611a65565b91505092915050565b600080600060608486031215611aee57611aed6116c6565b5b600084013567ffffffffffffffff811115611b0c57611b0b6116cb565b5b611b1886828701611aa7565b935050602084013567ffffffffffffffff811115611b3957611b386116cb565b5b611b4586828701611aa7565b925050604084013567ffffffffffffffff811115611b6657611b656116cb565b5b611b7286828701611aa7565b9150509250925092565b6000602082019050611b9160008301846118e9565b92915050565b7f4f6e6c792061646d696e2063616e2063616c6c20746869730000000000000000600082015250565b6000611bcd6018836117da565b9150611bd882611b97565b602082019050919050565b60006020820190508181036000830152611bfc81611bc0565b9050919050565b7f4e487b7100000000000000000000000000000000000000000000000000000000600052603260045260246000fd5b7f4e487b7100000000000000000000000000000000000000000000000000000000600052602260045260246000fd5b60006002820490506001821680611c7957607f821691505b602082108103611c8c57611c8b611c32565b5b50919050565b7f4e487b7100000000000000000000000000000000000000000000000000000000600052601160045260246000fd5b6000611ccc82611688565b915060008203611cdf57611cde611c92565b5b600182039050919050565b7f496e76616c6964207469636b6574204944000000000000000000000000000000600082015250565b6000611d206011836117da565b9150611d2b82611cea565b602082019050919050565b60006020820190508181036000830152611d4f81611d13565b9050919050565b7f596f7520646f6e2774206f776e2074686973207469636b657421000000000000600082015250565b6000611d8c601a836117da565b9150611d9782611d56565b602082019050919050565b60006020820190508181036000830152611dbb81611d7f565b9050919050565b7f526563697069656e7420616c7265616479206861732061207469636b65742100600082015250565b6000611df8601f836117da565b9150611e0382611dc2565b602082019050919050565b60006020820190508181036000830152611e2781611deb565b9050919050565b7f416c6c207469636b65747320736f6c6421000000000000000000000000000000600082015250565b6000611e646011836117da565b9150611e6f82611e2e565b602082019050919050565b60006020820190508181036000830152611e9381611e57565b9050919050565b7f496e636f7272656374207061796d656e74210000000000000000000000000000600082015250565b6000611ed06012836117da565b9150611edb82611e9a565b602082019050919050565b60006020820190508181036000830152611eff81611ec3565b9050919050565b7f596f7520616c726561647920686176652061207469636b657421000000000000600082015250565b6000611f3c601a836117da565b9150611f4782611f06565b602082019050919050565b60006020820190508181036000830152611f6b81611f2f565b9050919050565b600081905092915050565b60008190508160005260206000209050919050565b60008154611f9f81611c61565b611fa98186611f72565b94506001821660008114611fc45760018114611fd95761200c565b60ff198316865281151582028601935061200c565b611fe285611f7d565b60005b8381101561200457815481890152600182019150602081019050611fe5565b838801955050505b50505092915050565b60006120218284611f92565b915081905092915050565b7f5365617420616c72656164792074616b656e2100000000000000000000000000600082015250565b60006120626013836117da565b915061206d8261202c565b602082019050919050565b6000602082019050818103600083015261209181612055565b9050919050565b60008190508160005260206000209050919050565b60006020601f8301049050919050565b600082821b905092915050565b6000600883026120fa7fffffffffffffffffffffffffffffffffffffffffffffffffffffffffffffffff826120bd565b61210486836120bd565b95508019841693508086168417925050509392505050565b6000819050919050565b600061214161213c61213784611688565b61211c565b611688565b9050919050565b6000819050919050565b61215b83612126565b61216f61216782612148565b8484546120ca565b825550505050565b600090565b612184612177565b61218f818484612152565b505050565b5b818110156121b3576121a860008261217c565b600181019050612195565b5050565b601f8211156121f8576121c981612098565b6121d2846120ad565b810160208510156121e1578190505b6121f56121ed856120ad565b830182612194565b50505b505050565b600082821c905092915050565b600061221b600019846008026121fd565b1980831691505092915050565b6000612234838361220a565b9150826002028217905092915050565b61224d826117cf565b67ffffffffffffffff811115612266576122656119aa565b5b6122708254611c61565b61227b8282856121b7565b600060209050601f8311600181146122ae576000841561229c578287015190505b6122a68582612228565b86555061230e565b601f1984166122bc86612098565b60005b828110156122e4578489015182556001820191506020850194506020810190506122bf565b8683101561230157848901516122fd601f89168261220a565b8355505b6001600288020188555050505b505050505050565b600061232182611688565b915061232c83611688565b925082820390508181111561234457612343611c92565b5b92915050565b600061235582611688565b91507fffffffffffffffffffffffffffffffffffffffffffffffffffffffffffffffff820361238757612386611c92565b5b600182019050919050565b7f43616e6e6f7420736574206c6f776572207468616e207469636b65747320736f60008201527f6c64000000000000000000000000000000000000000000000000000000000000602082015250565b60006123ee6022836117da565b91506123f982612392565b604082019050919050565b6000602082019050818103600083015261241d816123e1565b905091905056fea264697066735822122030b2fd18eba1c08b96d30484318e53f331ca022b4f54ee822e6a6f1dd4d8681964736f6c634300081c0033",
  "linkReferences": {},
  "deployedLinkReferences": {}
}