{
  "_format": "hh-sol-artifact-1",
  "contractName": "EventTicket",
  "sourceName": "contracts/ticekting_test.sol",
  "abi": [
    {
      "inputs": [
        {
          "internalType": "uint256",
          "name": "_ticketPrice",
          "type": "uint256"
        },
        {
          "internalType": "uint256",
          "name": "_totalTickets",
          "type": "uint256"
        }
      ],
      "stateMutability": "nonpayable",
      "type": "constructor"
    },
    {
      "anonymous": false,
      "inputs": [
        {
          "indexed": false,
          "internalType": "uint256",
          "name": "newPrice",
          "type": "uint256"
        }
      ],
      "name": "TicketPriceUpdated",
      "type": "event"
    },
    {
      "anonymous": false,
      "inputs": [
        {
          "indexed": true,
          "internalType": "address",
          "name": "buyer",
          "type": "address"
        },
        {
          "indexed": true,
          "internalType": "uint256",
          "name": "ticketId",
          "type": "uint256"
        }
      ],
      "name": "TicketPurchased",
      "type": "event"
    },
    {
      "anonymous": false,
      "inputs": [
        {
          "indexed": true,
          "internalType": "address",
          "name": "from",
          "type": "address"
        },
        {
          "indexed": true,
          "internalType": "address",
          "name": "to",
          "type": "address"
        },
        {
          "indexed": true,
          "internalType": "uint256",
          "name": "ticketId",
          "type": "uint256"
        }
      ],
      "name": "TicketTransferred",
      "type": "event"
    },
    {
      "anonymous": false,
      "inputs": [
        {
          "indexed": false,
          "internalType": "uint256",
          "name": "newTotal",
          "type": "uint256"
        }
      ],
      "name": "TotalTicketsUpdated",
      "type": "event"
    },
    {
      "stateMutability": "payable",
      "type": "fallback"
    },
    {
      "inputs": [],
      "name": "admin",
      "outputs": [
        {
          "internalType": "address",
          "name": "",
          "type": "address"
        }
      ],
      "stateMutability": "view",
      "type": "function"
    },
    {
      "inputs": [],
      "name": "buyTicket",
      "outputs": [],
      "stateMutability": "payable",
      "type": "function"
    },
    {
      "inputs": [],
      "name": "deleteMyTicket",
      "outputs": [],
      "stateMutability": "nonpayable",
      "type": "function"
    },
    {
      "inputs": [],
      "name": "getBalance",
      "outputs": [
        {
          "internalType": "uint256",
          "name": "",
          "type": "uint256"
        }
      ],
      "stateMutability": "view",
      "type": "function"
    },
    {
      "inputs": [],
      "name": "getMyInformation",
      "outputs": [
        {
          "internalType": "address",
          "name": "user",
          "type": "address"
        },
        {
          "internalType": "int256",
          "name": "ticketId",
          "type": "int256"
        }
      ],
      "stateMutability": "view",
      "type": "function"
    },
    {
      "inputs": [],
      "name": "getMyTicketId",
      "outputs": [
        {
          "internalType": "int256",
          "name": "",
          "type": "int256"
        }
      ],
      "stateMutability": "view",
      "type": "function"
    },
    {
      "inputs": [
        {
          "internalType": "uint256",
          "name": "_price",
          "type": "uint256"
        }
      ],
      "name": "setTicketPrice",
      "outputs": [],
      "stateMutability": "nonpayable",
      "type": "function"
    },
    {
      "inputs": [
        {
          "internalType": "uint256",
          "name": "_total",
          "type": "uint256"
        }
      ],
      "name": "setTotalTickets",
      "outputs": [],
      "stateMutability": "nonpayable",
      "type": "function"
    },
    {
      "inputs": [],
      "name": "ticketPrice",
      "outputs": [
        {
          "internalType": "uint256",
          "name": "",
          "type": "uint256"
        }
      ],
      "stateMutability": "view",
      "type": "function"
    },
    {
      "inputs": [
        {
          "internalType": "uint256",
          "name": "",
          "type": "uint256"
        }
      ],
      "name": "tickets",
      "outputs": [
        {
          "internalType": "address",
          "name": "owner",
          "type": "address"
        },
        {
          "internalType": "bool",
          "name": "isUsed",
          "type": "bool"
        }
      ],
      "stateMutability": "view",
      "type": "function"
    },
    {
      "inputs": [],
      "name": "ticketsSold",
      "outputs": [
        {
          "internalType": "uint256",
          "name": "",
          "type": "uint256"
        }
      ],
      "stateMutability": "view",
      "type": "function"
    },
    {
      "inputs": [],
      "name": "totalTickets",
      "outputs": [
        {
          "internalType": "uint256",
          "name": "",
          "type": "uint256"
        }
      ],
      "stateMutability": "view",
      "type": "function"
    },
    {
      "inputs": [
        {
          "internalType": "uint256",
          "name": "ticketId",
          "type": "uint256"
        },
        {
          "internalType": "address",
          "name": "_to",
          "type": "address"
        }
      ],
      "name": "transferTicket",
      "outputs": [],
      "stateMutability": "nonpayable",
      "type": "function"
    },
    {
      "inputs": [
        {
          "internalType": "address",
          "name": "_user",
          "type": "address"
        }
      ],
      "name": "verifyOwnership",
      "outputs": [
        {
          "internalType": "bool",
          "name": "",
          "type": "bool"
        }
      ],
      "stateMutability": "view",
      "type": "function"
    },
    {
      "stateMutability": "payable",
      "type": "receive"
    }
  ],
  "bytecode": "0x6080604052735b38da6a701c568545dcfcb03fcb875f56beddc46000806101000a81548173ffffffffffffffffffffffffffffffffffffffff021916908373ffffffffffffffffffffffffffffffffffffffff16021790555034801561006457600080fd5b5060405161167f38038061167f833981810160405281019061008691906100d6565b81600181905550806002819055505050610116565b600080fd5b6000819050919050565b6100b3816100a0565b81146100be57600080fd5b50565b6000815190506100d0816100aa565b92915050565b600080604083850312156100ed576100ec61009b565b5b60006100fb858286016100c1565b925050602061010c858286016100c1565b9150509250929050565b61155a806101256000396000f3fe6080604052600436106100e15760003560e01c8063679ebf1a1161007f578063ae890c0a11610059578063ae890c0a146102a0578063dd11247e146102c9578063edca914c146102f4578063f851a440146102fe576100e2565b8063679ebf1a1461022057806370529163146102495780638f15024f14610275576100e2565b806315981650116100bb57806315981650146101655780632cc9c1511461018e5780633e5ea680146101cb57806350b44712146101e2576100e2565b80630d2f8693146100e457806312065fe01461010f5780631209b1f61461013a576100e2565b5b005b3480156100f057600080fd5b506100f9610329565b6040516101069190610e60565b60405180910390f35b34801561011b57600080fd5b506101246103f0565b6040516101319190610e94565b60405180910390f35b34801561014657600080fd5b5061014f6103f8565b60405161015c9190610e94565b60405180910390f35b34801561017157600080fd5b5061018c60048036038101906101879190610ee0565b6103fe565b005b34801561019a57600080fd5b506101b560048036038101906101b09190610f6b565b6104cd565b6040516101c29190610fb3565b60405180910390f35b3480156101d757600080fd5b506101e0610578565b005b3480156101ee57600080fd5b5061020960048036038101906102049190610ee0565b6106c4565b604051610217929190610fdd565b60405180910390f35b34801561022c57600080fd5b5061024760048036038101906102429190611006565b610721565b005b34801561025557600080fd5b5061025e6109a3565b60405161026c929190611046565b60405180910390f35b34801561028157600080fd5b5061028a610a6a565b6040516102979190610e94565b60405180910390f35b3480156102ac57600080fd5b506102c760048036038101906102c29190610ee0565b610a70565b005b3480156102d557600080fd5b506102de610b84565b6040516102eb9190610e94565b60405180910390f35b6102fc610b8a565b005b34801561030a57600080fd5b50610313610e23565b604051610320919061106f565b60405180910390f35b600080600090505b6004805490508110156103c8573373ffffffffffffffffffffffffffffffffffffffff16600482815481106103695761036861108a565b5b9060005260206000200160000160009054906101000a900473ffffffffffffffffffffffffffffffffffffffff1673ffffffffffffffffffffffffffffffffffffffff16036103bb57809150506103ed565b8080600101915050610331565b507fffffffffffffffffffffffffffffffffffffffffffffffffffffffffffffffff90505b90565b600047905090565b60015481565b60008054906101000a900473ffffffffffffffffffffffffffffffffffffffff1673ffffffffffffffffffffffffffffffffffffffff163373ffffffffffffffffffffffffffffffffffffffff161461048c576040517f08c379a000000000000000000000000000000000000000000000000000000000815260040161048390611116565b60405180910390fd5b806001819055507f7429795511c1ec5ebcc0e6839095ec18f13fce25cdc7c90da9d8a016584a1dbe816040516104c29190610e94565b60405180910390a150565b600080600090505b60048054905081101561056d578273ffffffffffffffffffffffffffffffffffffffff166004828154811061050d5761050c61108a565b5b9060005260206000200160000160009054906101000a900473ffffffffffffffffffffffffffffffffffffffff1673ffffffffffffffffffffffffffffffffffffffff1603610560576001915050610573565b80806001019150506104d5565b50600090505b919050565b60005b6004805490508110156106c1573373ffffffffffffffffffffffffffffffffffffffff16600482815481106105b3576105b261108a565b5b9060005260206000200160000160009054906101000a900473ffffffffffffffffffffffffffffffffffffffff1673ffffffffffffffffffffffffffffffffffffffff16036106b4576000600482815481106106125761061161108a565b5b9060005260206000200160000160006101000a81548173ffffffffffffffffffffffffffffffffffffffff021916908373ffffffffffffffffffffffffffffffffffffffff1602179055506001600482815481106106735761067261108a565b5b9060005260206000200160000160146101000a81548160ff021916908315150217905550600360008154809291906106aa90611165565b91905055506106c1565b808060010191505061057b565b50565b600481815481106106d457600080fd5b906000526020600020016000915090508060000160009054906101000a900473ffffffffffffffffffffffffffffffffffffffff16908060000160149054906101000a900460ff16905082565b6004805490508210610768576040517f08c379a000000000000000000000000000000000000000000000000000000000815260040161075f906111da565b60405180910390fd5b3373ffffffffffffffffffffffffffffffffffffffff16600483815481106107935761079261108a565b5b9060005260206000200160000160009054906101000a900473ffffffffffffffffffffffffffffffffffffffff1673ffffffffffffffffffffffffffffffffffffffff1614610817576040517f08c379a000000000000000000000000000000000000000000000000000000000815260040161080e90611246565b60405180910390fd5b60005b6004805490508110156108e3578173ffffffffffffffffffffffffffffffffffffffff16600482815481106108525761085161108a565b5b9060005260206000200160000160009054906101000a900473ffffffffffffffffffffffffffffffffffffffff1673ffffffffffffffffffffffffffffffffffffffff16036108d6576040517f08c379a00000000000000000000000000000000000000000000000000000000081526004016108cd906112b2565b60405180910390fd5b808060010191505061081a565b5080600483815481106108f9576108f861108a565b5b9060005260206000200160000160006101000a81548173ffffffffffffffffffffffffffffffffffffffff021916908373ffffffffffffffffffffffffffffffffffffffff160217905550818173ffffffffffffffffffffffffffffffffffffffff163373ffffffffffffffffffffffffffffffffffffffff167f17fe3deddce525fa12700a731e77ea94c319000ee656076e9e3f0d21638db76660405160405180910390a45050565b6000803391507fffffffffffffffffffffffffffffffffffffffffffffffffffffffffffffffff905060005b600480549050811015610a65573373ffffffffffffffffffffffffffffffffffffffff1660048281548110610a0757610a0661108a565b5b9060005260206000200160000160009054906101000a900473ffffffffffffffffffffffffffffffffffffffff1673ffffffffffffffffffffffffffffffffffffffff1603610a5857809150610a65565b80806001019150506109cf565b509091565b60035481565b60008054906101000a900473ffffffffffffffffffffffffffffffffffffffff1673ffffffffffffffffffffffffffffffffffffffff163373ffffffffffffffffffffffffffffffffffffffff1614610afe576040517f08c379a0000000000000000000000000000000000000000000000000000000008152600401610af590611116565b60405180910390fd5b600354811015610b43576040517f08c379a0000000000000000000000000000000000000000000000000000000008152600401610b3a90611344565b60405180910390fd5b806002819055507f0d87b910dfebbfcc6689869fac6410176f8ef1b1d530fcd0e33000e1ffaf17ab81604051610b799190610e94565b60405180910390a150565b60025481565b678ac7230489e8000060018190555060025460035410610bdf576040517f08c379a0000000000000000000000000000000000000000000000000000000008152600401610bd6906113b0565b60405180910390fd5b6001543414610c23576040517f08c379a0000000000000000000000000000000000000000000000000000000008152600401610c1a9061141c565b60405180910390fd5b60005b600480549050811015610cef573373ffffffffffffffffffffffffffffffffffffffff1660048281548110610c5e57610c5d61108a565b5b9060005260206000200160000160009054906101000a900473ffffffffffffffffffffffffffffffffffffffff1673ffffffffffffffffffffffffffffffffffffffff1603610ce2576040517f08c379a0000000000000000000000000000000000000000000000000000000008152600401610cd990611488565b60405180910390fd5b8080600101915050610c26565b50600460405180604001604052803373ffffffffffffffffffffffffffffffffffffffff168152602001600015158152509080600181540180825580915050600190039060005260206000200160009091909190915060008201518160000160006101000a81548173ffffffffffffffffffffffffffffffffffffffff021916908373ffffffffffffffffffffffffffffffffffffffff16021790555060208201518160000160146101000a81548160ff021916908315150217905550505060006001600480549050610dc291906114a8565b905060036000815480929190610dd7906114dc565b9190505550803373ffffffffffffffffffffffffffffffffffffffff167f0668f5b446eb814fe35b3206f43f14bd8567ba04ddaf7a3ee56516929ab22ccb60405160405180910390a350565b60008054906101000a900473ffffffffffffffffffffffffffffffffffffffff1681565b6000819050919050565b610e5a81610e47565b82525050565b6000602082019050610e756000830184610e51565b92915050565b6000819050919050565b610e8e81610e7b565b82525050565b6000602082019050610ea96000830184610e85565b92915050565b600080fd5b610ebd81610e7b565b8114610ec857600080fd5b50565b600081359050610eda81610eb4565b92915050565b600060208284031215610ef657610ef5610eaf565b5b6000610f0484828501610ecb565b91505092915050565b600073ffffffffffffffffffffffffffffffffffffffff82169050919050565b6000610f3882610f0d565b9050919050565b610f4881610f2d565b8114610f5357600080fd5b50565b600081359050610f6581610f3f565b92915050565b600060208284031215610f8157610f80610eaf565b5b6000610f8f84828501610f56565b91505092915050565b60008115159050919050565b610fad81610f98565b82525050565b6000602082019050610fc86000830184610fa4565b92915050565b610fd781610f2d565b82525050565b6000604082019050610ff26000830185610fce565b610fff6020830184610fa4565b9392505050565b6000806040838503121561101d5761101c610eaf565b5b600061102b85828601610ecb565b925050602061103c85828601610f56565b9150509250929050565b600060408201905061105b6000830185610fce565b6110686020830184610e51565b9392505050565b60006020820190506110846000830184610fce565b92915050565b7f4e487b7100000000000000000000000000000000000000000000000000000000600052603260045260246000fd5b600082825260208201905092915050565b7f4f6e6c792061646d696e2063616e2063616c6c20746869730000000000000000600082015250565b60006111006018836110b9565b915061110b826110ca565b602082019050919050565b6000602082019050818103600083015261112f816110f3565b9050919050565b7f4e487b7100000000000000000000000000000000000000000000000000000000600052601160045260246000fd5b600061117082610e7b565b91506000820361118357611182611136565b5b600182039050919050565b7f496e76616c6964207469636b6574204944000000000000000000000000000000600082015250565b60006111c46011836110b9565b91506111cf8261118e565b602082019050919050565b600060208201905081810360008301526111f3816111b7565b9050919050565b7f596f7520646f6e2774206f776e2074686973207469636b657421000000000000600082015250565b6000611230601a836110b9565b915061123b826111fa565b602082019050919050565b6000602082019050818103600083015261125f81611223565b9050919050565b7f526563697069656e7420616c7265616479206861732061207469636b65742100600082015250565b600061129c601f836110b9565b91506112a782611266565b602082019050919050565b600060208201905081810360008301526112cb8161128f565b9050919050565b7f43616e6e6f7420736574206c6f776572207468616e207469636b65747320736f60008201527f6c64000000000000000000000000000000000000000000000000000000000000602082015250565b600061132e6022836110b9565b9150611339826112d2565b604082019050919050565b6000602082019050818103600083015261135d81611321565b9050919050565b7f416c6c207469636b65747320736f6c6421000000000000000000000000000000600082015250565b600061139a6011836110b9565b91506113a582611364565b602082019050919050565b600060208201905081810360008301526113c98161138d565b9050919050565b7f496e636f7272656374207061796d656e74210000000000000000000000000000600082015250565b60006114066012836110b9565b9150611411826113d0565b602082019050919050565b60006020820190508181036000830152611435816113f9565b9050919050565b7f596f7520616c726561647920686176652061207469636b657421000000000000600082015250565b6000611472601a836110b9565b915061147d8261143c565b602082019050919050565b600060208201905081810360008301526114a181611465565b9050919050565b60006114b382610e7b565b91506114be83610e7b565b92508282039050818111156114d6576114d5611136565b5b92915050565b60006114e782610e7b565b91507fffffffffffffffffffffffffffffffffffffffffffffffffffffffffffffffff820361151957611518611136565b5b60018201905091905056fea2646970667358221220b900287a8b5f1c78d1bb08e33cca6b1dc43d200b5ec8925f25034221c3a8673b64736f6c634300081c0033",
  "linkReferences": {},
  "deployedLinkReferences": {}
}