{
  "_format": "hh-sol-artifact-1",
  "contractName": "MovieTicket",
  "sourceName": "contracts/ticekting_test.sol",
  "abi": [
    {
      "inputs": [
        {
          "internalType": "uint256",
          "name": "_ticketPrice",
          "type": "uint256"
        },
        {
          "internalType": "uint256",
          "name": "_totalTickets",
          "type": "uint256"
        }
      ],
      "stateMutability": "nonpayable",
      "type": "constructor"
    },
    {
      "anonymous": false,
      "inputs": [
        {
          "indexed": false,
          "internalType": "uint256",
          "name": "newPrice",
          "type": "uint256"
        }
      ],
      "name": "TicketPriceUpdated",
      "type": "event"
    },
    {
      "anonymous": false,
      "inputs": [
        {
          "indexed": true,
          "internalType": "address",
          "name": "buyer",
          "type": "address"
        },
        {
          "indexed": true,
          "internalType": "uint256",
          "name": "ticketId",
          "type": "uint256"
        }
      ],
      "name": "TicketPurchased",
      "type": "event"
    },
    {
      "anonymous": false,
      "inputs": [
        {
          "indexed": true,
          "internalType": "address",
          "name": "from",
          "type": "address"
        },
        {
          "indexed": true,
          "internalType": "address",
          "name": "to",
          "type": "address"
        },
        {
          "indexed": true,
          "internalType": "uint256",
          "name": "ticketId",
          "type": "uint256"
        }
      ],
      "name": "TicketTransferred",
      "type": "event"
    },
    {
      "anonymous": false,
      "inputs": [
        {
          "indexed": false,
          "internalType": "uint256",
          "name": "newTotal",
          "type": "uint256"
        }
      ],
      "name": "TotalTicketsUpdated",
      "type": "event"
    },
    {
      "stateMutability": "payable",
      "type": "fallback"
    },
    {
      "inputs": [],
      "name": "admin",
      "outputs": [
        {
          "internalType": "address",
          "name": "",
          "type": "address"
        }
      ],
      "stateMutability": "view",
      "type": "function"
    },
    {
      "inputs": [
        {
          "internalType": "uint256",
          "name": "",
          "type": "uint256"
        }
      ],
      "name": "availableMovies",
      "outputs": [
        {
          "internalType": "string",
          "name": "",
          "type": "string"
        }
      ],
      "stateMutability": "view",
      "type": "function"
    },
    {
      "inputs": [
        {
          "internalType": "uint256",
          "name": "",
          "type": "uint256"
        }
      ],
      "name": "availableShowtimes",
      "outputs": [
        {
          "internalType": "string",
          "name": "",
          "type": "string"
        }
      ],
      "stateMutability": "view",
      "type": "function"
    },
    {
      "inputs": [
        {
          "internalType": "string",
          "name": "_movieTitle",
          "type": "string"
        },
        {
          "internalType": "string",
          "name": "_showtime",
          "type": "string"
        },
        {
          "internalType": "string",
          "name": "_seat",
          "type": "string"
        }
      ],
      "name": "buyTicket",
      "outputs": [],
      "stateMutability": "payable",
      "type": "function"
    },
    {
      "inputs": [],
      "name": "deleteMyTicket",
      "outputs": [],
      "stateMutability": "nonpayable",
      "type": "function"
    },
    {
      "inputs": [],
      "name": "getBalance",
      "outputs": [
        {
          "internalType": "uint256",
          "name": "",
          "type": "uint256"
        }
      ],
      "stateMutability": "view",
      "type": "function"
    },
    {
      "inputs": [],
      "name": "getMyTicket",
      "outputs": [
        {
          "internalType": "bool",
          "name": "hasTicket",
          "type": "bool"
        },
        {
          "internalType": "uint256",
          "name": "ticketId",
          "type": "uint256"
        },
        {
          "internalType": "string",
          "name": "movie",
          "type": "string"
        },
        {
          "internalType": "string",
          "name": "time",
          "type": "string"
        },
        {
          "internalType": "string",
          "name": "seat",
          "type": "string"
        }
      ],
      "stateMutability": "view",
      "type": "function"
    },
    {
      "inputs": [
        {
          "internalType": "uint256",
          "name": "_price",
          "type": "uint256"
        }
      ],
      "name": "setTicketPrice",
      "outputs": [],
      "stateMutability": "nonpayable",
      "type": "function"
    },
    {
      "inputs": [
        {
          "internalType": "uint256",
          "name": "_total",
          "type": "uint256"
        }
      ],
      "name": "setTotalTickets",
      "outputs": [],
      "stateMutability": "nonpayable",
      "type": "function"
    },
    {
      "inputs": [],
      "name": "ticketPrice",
      "outputs": [
        {
          "internalType": "uint256",
          "name": "",
          "type": "uint256"
        }
      ],
      "stateMutability": "view",
      "type": "function"
    },
    {
      "inputs": [
        {
          "internalType": "uint256",
          "name": "",
          "type": "uint256"
        }
      ],
      "name": "tickets",
      "outputs": [
        {
          "internalType": "address",
          "name": "owner",
          "type": "address"
        },
        {
          "internalType": "bool",
          "name": "isUsed",
          "type": "bool"
        },
        {
          "internalType": "string",
          "name": "movieTitle",
          "type": "string"
        },
        {
          "internalType": "string",
          "name": "showtime",
          "type": "string"
        },
        {
          "internalType": "string",
          "name": "seat",
          "type": "string"
        }
      ],
      "stateMutability": "view",
      "type": "function"
    },
    {
      "inputs": [],
      "name": "ticketsSold",
      "outputs": [
        {
          "internalType": "uint256",
          "name": "",
          "type": "uint256"
        }
      ],
      "stateMutability": "view",
      "type": "function"
    },
    {
      "inputs": [],
      "name": "totalTickets",
      "outputs": [
        {
          "internalType": "uint256",
          "name": "",
          "type": "uint256"
        }
      ],
      "stateMutability": "view",
      "type": "function"
    },
    {
      "inputs": [
        {
          "internalType": "uint256",
          "name": "ticketId",
          "type": "uint256"
        },
        {
          "internalType": "address",
          "name": "_to",
          "type": "address"
        }
      ],
      "name": "transferTicket",
      "outputs": [],
      "stateMutability": "nonpayable",
      "type": "function"
    },
    {
      "inputs": [
        {
          "internalType": "address",
          "name": "_user",
          "type": "address"
        }
      ],
      "name": "verifyOwnership",
      "outputs": [
        {
          "internalType": "bool",
          "name": "hasTicket",
          "type": "bool"
        },
        {
          "internalType": "uint256",
          "name": "ticketId",
          "type": "uint256"
        },
        {
          "internalType": "string",
          "name": "movie",
          "type": "string"
        },
        {
          "internalType": "string",
          "name": "time",
          "type": "string"
        },
        {
          "internalType": "string",
          "name": "seat",
          "type": "string"
        }
      ],
      "stateMutability": "view",
      "type": "function"
    },
    {
      "stateMutability": "payable",
      "type": "receive"
    }
  ],
  "bytecode": "0x6080604052735b38da6a701c568545dcfcb03fcb875f56beddc46000806101000a81548173ffffffffffffffffffffffffffffffffffffffff021916908373ffffffffffffffffffffffffffffffffffffffff1602179055506040518060a001604052806040518060400160405280601f81526020017f476f647a696c6c612078204b6f6e673a20546865204e657720456d706972650081525081526020016040518060400160405280600b81526020017f4f7070656e6865696d657200000000000000000000000000000000000000000081525081526020016040518060400160405280600c81526020017f496e73696465204f75742032000000000000000000000000000000000000000081525081526020016040518060400160405280601481526020017f44656164706f6f6c202620576f6c766572696e6500000000000000000000000081525081526020016040518060400160405280600c81526020017f546865204261746d616e2032000000000000000000000000000000000000000081525081525060049060056101989291906102a7565b5060405180606001604052806040518060400160405280600581526020017f31303a303000000000000000000000000000000000000000000000000000000081525081526020016040518060400160405280600581526020017f31343a303000000000000000000000000000000000000000000000000000000081525081526020016040518060400160405280600581526020017f32303a30300000000000000000000000000000000000000000000000000000008152508152506005906003610263929190610300565b5034801561027057600080fd5b50604051612cb1380380612cb183398181016040528101906102929190610415565b8160018190555080600281905550505061076d565b8280548282559060005260206000209081019282156102ef579160200282015b828111156102ee5782518290816102de919061069b565b50916020019190600101906102c7565b5b5090506102fc9190610359565b5090565b828054828255906000526020600020908101928215610348579160200282015b82811115610347578251829081610337919061069b565b5091602001919060010190610320565b5b5090506103559190610359565b5090565b5b808211156103795760008181610370919061037d565b5060010161035a565b5090565b508054610389906104be565b6000825580601f1061039b57506103ba565b601f0160209004906000526020600020908101906103b991906103bd565b5b50565b5b808211156103d65760008160009055506001016103be565b5090565b600080fd5b6000819050919050565b6103f2816103df565b81146103fd57600080fd5b50565b60008151905061040f816103e9565b92915050565b6000806040838503121561042c5761042b6103da565b5b600061043a85828601610400565b925050602061044b85828601610400565b9150509250929050565b600081519050919050565b7f4e487b7100000000000000000000000000000000000000000000000000000000600052604160045260246000fd5b7f4e487b7100000000000000000000000000000000000000000000000000000000600052602260045260246000fd5b600060028204905060018216806104d657607f821691505b6020821081036104e9576104e861048f565b5b50919050565b60008190508160005260206000209050919050565b60006020601f8301049050919050565b600082821b905092915050565b6000600883026105517fffffffffffffffffffffffffffffffffffffffffffffffffffffffffffffffff82610514565b61055b8683610514565b95508019841693508086168417925050509392505050565b6000819050919050565b600061059861059361058e846103df565b610573565b6103df565b9050919050565b6000819050919050565b6105b28361057d565b6105c66105be8261059f565b848454610521565b825550505050565b600090565b6105db6105ce565b6105e68184846105a9565b505050565b5b8181101561060a576105ff6000826105d3565b6001810190506105ec565b5050565b601f82111561064f57610620816104ef565b61062984610504565b81016020851015610638578190505b61064c61064485610504565b8301826105eb565b50505b505050565b600082821c905092915050565b600061067260001984600802610654565b1980831691505092915050565b600061068b8383610661565b9150826002028217905092915050565b6106a482610455565b67ffffffffffffffff8111156106bd576106bc610460565b5b6106c782546104be565b6106d282828561060e565b600060209050601f83116001811461070557600084156106f3578287015190505b6106fd858261067f565b865550610765565b601f198416610713866104ef565b60005b8281101561073b57848901518255600182019150602085019450602081019050610716565b868310156107585784890151610754601f891682610661565b8355505b6001600288020188555050505b505050505050565b6125358061077c6000396000f3fe6080604052600436106100ec5760003560e01c806350b447121161008a578063a1c0005911610059578063a1c00059146102e3578063ae890c0a14610320578063dd11247e14610349578063f851a44014610374576100ed565b806350b4471214610232578063679ebf1a14610273578063726021be1461029c5780638f15024f146102b8576100ed565b80632cc9c151116100c65780632cc9c1511461016e5780633e5ea680146101af5780633f7daf81146101c65780634aa4ad90146101f5576100ed565b806312065fe0146100ef5780631209b1f61461011a5780631598165014610145576100ed565b5b005b3480156100fb57600080fd5b5061010461039f565b6040516101119190611710565b60405180910390f35b34801561012657600080fd5b5061012f6103a7565b60405161013c9190611710565b60405180910390f35b34801561015157600080fd5b5061016c6004803603810190610167919061176b565b6103ad565b005b34801561017a57600080fd5b50610195600480360381019061019091906117f6565b61047c565b6040516101a69594939291906118ce565b60405180910390f35b3480156101bb57600080fd5b506101c4610787565b005b3480156101d257600080fd5b506101db6108df565b6040516101ec9594939291906118ce565b60405180910390f35b34801561020157600080fd5b5061021c6004803603810190610217919061176b565b610be8565b6040516102299190611936565b60405180910390f35b34801561023e57600080fd5b506102596004803603810190610254919061176b565b610c94565b60405161026a959493929190611967565b60405180910390f35b34801561027f57600080fd5b5061029a600480360381019061029591906119cf565b610e9f565b005b6102b660048036038101906102b19190611b44565b61119c565b005b3480156102c457600080fd5b506102cd611507565b6040516102da9190611710565b60405180910390f35b3480156102ef57600080fd5b5061030a6004803603810190610305919061176b565b61150d565b6040516103179190611936565b60405180910390f35b34801561032c57600080fd5b506103476004803603810190610342919061176b565b6115b9565b005b34801561035557600080fd5b5061035e6116cd565b60405161036b9190611710565b60405180910390f35b34801561038057600080fd5b506103896116d3565b6040516103969190611beb565b60405180910390f35b600047905090565b60015481565b60008054906101000a900473ffffffffffffffffffffffffffffffffffffffff1673ffffffffffffffffffffffffffffffffffffffff163373ffffffffffffffffffffffffffffffffffffffff161461043b576040517f08c379a000000000000000000000000000000000000000000000000000000000815260040161043290611c52565b60405180910390fd5b806001819055507f7429795511c1ec5ebcc0e6839095ec18f13fce25cdc7c90da9d8a016584a1dbe816040516104719190611710565b60405180910390a150565b600080606080606060005b60068054905081101561073f578673ffffffffffffffffffffffffffffffffffffffff16600682815481106104bf576104be611c72565b5b906000526020600020906004020160000160009054906101000a900473ffffffffffffffffffffffffffffffffffffffff1673ffffffffffffffffffffffffffffffffffffffff1603610732576001816006838154811061052357610522611c72565b5b90600052602060002090600402016001016006848154811061054857610547611c72565b5b90600052602060002090600402016002016006858154811061056d5761056c611c72565b5b906000526020600020906004020160030182805461058a90611cd0565b80601f01602080910402602001604051908101604052809291908181526020018280546105b690611cd0565b80156106035780601f106105d857610100808354040283529160200191610603565b820191906000526020600020905b8154815290600101906020018083116105e657829003601f168201915b5050505050925081805461061690611cd0565b80601f016020809104026020016040519081016040528092919081815260200182805461064290611cd0565b801561068f5780601f106106645761010080835404028352916020019161068f565b820191906000526020600020905b81548152906001019060200180831161067257829003601f168201915b505050505091508080546106a290611cd0565b80601f01602080910402602001604051908101604052809291908181526020018280546106ce90611cd0565b801561071b5780601f106106f05761010080835404028352916020019161071b565b820191906000526020600020905b8154815290600101906020018083116106fe57829003601f168201915b50505050509050955095509550955095505061077e565b8080600101915050610487565b50600080604051806020016040528060008152506040518060200160405280600081525060405180602001604052806000815250945094509450945094505b91939590929450565b60005b6006805490508110156108dc573373ffffffffffffffffffffffffffffffffffffffff16600682815481106107c2576107c1611c72565b5b906000526020600020906004020160000160009054906101000a900473ffffffffffffffffffffffffffffffffffffffff1673ffffffffffffffffffffffffffffffffffffffff16036108cf5760006006828154811061082557610824611c72565b5b906000526020600020906004020160000160006101000a81548173ffffffffffffffffffffffffffffffffffffffff021916908373ffffffffffffffffffffffffffffffffffffffff16021790555060016006828154811061088a57610889611c72565b5b906000526020600020906004020160000160146101000a81548160ff021916908315150217905550600360008154809291906108c590611d30565b91905055506108dc565b808060010191505061078a565b50565b600080606080606060005b600680549050811015610ba2573373ffffffffffffffffffffffffffffffffffffffff166006828154811061092257610921611c72565b5b906000526020600020906004020160000160009054906101000a900473ffffffffffffffffffffffffffffffffffffffff1673ffffffffffffffffffffffffffffffffffffffff1603610b95576001816006838154811061098657610985611c72565b5b9060005260206000209060040201600101600684815481106109ab576109aa611c72565b5b9060005260206000209060040201600201600685815481106109d0576109cf611c72565b5b90600052602060002090600402016003018280546109ed90611cd0565b80601f0160208091040260200160405190810160405280929190818152602001828054610a1990611cd0565b8015610a665780601f10610a3b57610100808354040283529160200191610a66565b820191906000526020600020905b815481529060010190602001808311610a4957829003601f168201915b50505050509250818054610a7990611cd0565b80601f0160208091040260200160405190810160405280929190818152602001828054610aa590611cd0565b8015610af25780601f10610ac757610100808354040283529160200191610af2565b820191906000526020600020905b815481529060010190602001808311610ad557829003601f168201915b50505050509150808054610b0590611cd0565b80601f0160208091040260200160405190810160405280929190818152602001828054610b3190611cd0565b8015610b7e5780601f10610b5357610100808354040283529160200191610b7e565b820191906000526020600020905b815481529060010190602001808311610b6157829003601f168201915b505050505090509550955095509550955050610be1565b80806001019150506108ea565b50600080604051806020016040528060008152506040518060200160405280600081525060405180602001604052806000815250945094509450945094505b9091929394565b60048181548110610bf857600080fd5b906000526020600020016000915090508054610c1390611cd0565b80601f0160208091040260200160405190810160405280929190818152602001828054610c3f90611cd0565b8015610c8c5780601f10610c6157610100808354040283529160200191610c8c565b820191906000526020600020905b815481529060010190602001808311610c6f57829003601f168201915b505050505081565b60068181548110610ca457600080fd5b90600052602060002090600402016000915090508060000160009054906101000a900473ffffffffffffffffffffffffffffffffffffffff16908060000160149054906101000a900460ff1690806001018054610d0090611cd0565b80601f0160208091040260200160405190810160405280929190818152602001828054610d2c90611cd0565b8015610d795780601f10610d4e57610100808354040283529160200191610d79565b820191906000526020600020905b815481529060010190602001808311610d5c57829003601f168201915b505050505090806002018054610d8e90611cd0565b80601f0160208091040260200160405190810160405280929190818152602001828054610dba90611cd0565b8015610e075780601f10610ddc57610100808354040283529160200191610e07565b820191906000526020600020905b815481529060010190602001808311610dea57829003601f168201915b505050505090806003018054610e1c90611cd0565b80601f0160208091040260200160405190810160405280929190818152602001828054610e4890611cd0565b8015610e955780601f10610e6a57610100808354040283529160200191610e95565b820191906000526020600020905b815481529060010190602001808311610e7857829003601f168201915b5050505050905085565b6006805490508210610ee6576040517f08c379a0000000000000000000000000000000000000000000000000000000008152600401610edd90611da5565b60405180910390fd5b3373ffffffffffffffffffffffffffffffffffffffff1660068381548110610f1157610f10611c72565b5b906000526020600020906004020160000160009054906101000a900473ffffffffffffffffffffffffffffffffffffffff1673ffffffffffffffffffffffffffffffffffffffff1614610f99576040517f08c379a0000000000000000000000000000000000000000000000000000000008152600401610f9090611e11565b60405180910390fd5b600073ffffffffffffffffffffffffffffffffffffffff168173ffffffffffffffffffffffffffffffffffffffff1603611008576040517f08c379a0000000000000000000000000000000000000000000000000000000008152600401610fff90611e7d565b60405180910390fd5b60005b6006805490508110156110d8578173ffffffffffffffffffffffffffffffffffffffff166006828154811061104357611042611c72565b5b906000526020600020906004020160000160009054906101000a900473ffffffffffffffffffffffffffffffffffffffff1673ffffffffffffffffffffffffffffffffffffffff16036110cb576040517f08c379a00000000000000000000000000000000000000000000000000000000081526004016110c290611ee9565b60405180910390fd5b808060010191505061100b565b5080600683815481106110ee576110ed611c72565b5b906000526020600020906004020160000160006101000a81548173ffffffffffffffffffffffffffffffffffffffff021916908373ffffffffffffffffffffffffffffffffffffffff160217905550818173ffffffffffffffffffffffffffffffffffffffff163373ffffffffffffffffffffffffffffffffffffffff167f17fe3deddce525fa12700a731e77ea94c319000ee656076e9e3f0d21638db76660405160405180910390a45050565b600254600354106111e2576040517f08c379a00000000000000000000000000000000000000000000000000000000081526004016111d990611f55565b60405180910390fd5b6001543414611226576040517f08c379a000000000000000000000000000000000000000000000000000000000815260040161121d90611fc1565b60405180910390fd5b60005b600680549050811015611378573373ffffffffffffffffffffffffffffffffffffffff166006828154811061126157611260611c72565b5b906000526020600020906004020160000160009054906101000a900473ffffffffffffffffffffffffffffffffffffffff1673ffffffffffffffffffffffffffffffffffffffff16036112e9576040517f08c379a00000000000000000000000000000000000000000000000000000000081526004016112e09061202d565b60405180910390fd5b81805190602001206006828154811061130557611304611c72565b5b906000526020600020906004020160030160405161132391906120f0565b60405180910390200361136b576040517f08c379a000000000000000000000000000000000000000000000000000000000815260040161136290612153565b60405180910390fd5b8080600101915050611229565b5060066040518060a001604052803373ffffffffffffffffffffffffffffffffffffffff16815260200160001515815260200185815260200184815260200183815250908060018154018082558091505060019003906000526020600020906004020160009091909190915060008201518160000160006101000a81548173ffffffffffffffffffffffffffffffffffffffff021916908373ffffffffffffffffffffffffffffffffffffffff16021790555060208201518160000160146101000a81548160ff0219169083151502179055506040820151816001019081611460919061231f565b506060820151816002019081611476919061231f565b50608082015181600301908161148c919061231f565b505050600060016006805490506114a391906123f1565b9050600360008154809291906114b890612425565b9190505550803373ffffffffffffffffffffffffffffffffffffffff167f0668f5b446eb814fe35b3206f43f14bd8567ba04ddaf7a3ee56516929ab22ccb60405160405180910390a350505050565b60035481565b6005818154811061151d57600080fd5b90600052602060002001600091509050805461153890611cd0565b80601f016020809104026020016040519081016040528092919081815260200182805461156490611cd0565b80156115b15780601f10611586576101008083540402835291602001916115b1565b820191906000526020600020905b81548152906001019060200180831161159457829003601f168201915b505050505081565b60008054906101000a900473ffffffffffffffffffffffffffffffffffffffff1673ffffffffffffffffffffffffffffffffffffffff163373ffffffffffffffffffffffffffffffffffffffff1614611647576040517f08c379a000000000000000000000000000000000000000000000000000000000815260040161163e90611c52565b60405180910390fd5b60035481101561168c576040517f08c379a0000000000000000000000000000000000000000000000000000000008152600401611683906124df565b60405180910390fd5b806002819055507f0d87b910dfebbfcc6689869fac6410176f8ef1b1d530fcd0e33000e1ffaf17ab816040516116c29190611710565b60405180910390a150565b60025481565b60008054906101000a900473ffffffffffffffffffffffffffffffffffffffff1681565b6000819050919050565b61170a816116f7565b82525050565b60006020820190506117256000830184611701565b92915050565b6000604051905090565b600080fd5b600080fd5b611748816116f7565b811461175357600080fd5b50565b6000813590506117658161173f565b92915050565b60006020828403121561178157611780611735565b5b600061178f84828501611756565b91505092915050565b600073ffffffffffffffffffffffffffffffffffffffff82169050919050565b60006117c382611798565b9050919050565b6117d3816117b8565b81146117de57600080fd5b50565b6000813590506117f0816117ca565b92915050565b60006020828403121561180c5761180b611735565b5b600061181a848285016117e1565b91505092915050565b60008115159050919050565b61183881611823565b82525050565b600081519050919050565b600082825260208201905092915050565b60005b8381101561187857808201518184015260208101905061185d565b60008484015250505050565b6000601f19601f8301169050919050565b60006118a08261183e565b6118aa8185611849565b93506118ba81856020860161185a565b6118c381611884565b840191505092915050565b600060a0820190506118e3600083018861182f565b6118f06020830187611701565b81810360408301526119028186611895565b905081810360608301526119168185611895565b9050818103608083015261192a8184611895565b90509695505050505050565b600060208201905081810360008301526119508184611895565b905092915050565b611961816117b8565b82525050565b600060a08201905061197c6000830188611958565b611989602083018761182f565b818103604083015261199b8186611895565b905081810360608301526119af8185611895565b905081810360808301526119c38184611895565b90509695505050505050565b600080604083850312156119e6576119e5611735565b5b60006119f485828601611756565b9250506020611a05858286016117e1565b9150509250929050565b600080fd5b600080fd5b7f4e487b7100000000000000000000000000000000000000000000000000000000600052604160045260246000fd5b611a5182611884565b810181811067ffffffffffffffff82111715611a7057611a6f611a19565b5b80604052505050565b6000611a8361172b565b9050611a8f8282611a48565b919050565b600067ffffffffffffffff821115611aaf57611aae611a19565b5b611ab882611884565b9050602081019050919050565b82818337600083830152505050565b6000611ae7611ae284611a94565b611a79565b905082815260208101848484011115611b0357611b02611a14565b5b611b0e848285611ac5565b509392505050565b600082601f830112611b2b57611b2a611a0f565b5b8135611b3b848260208601611ad4565b91505092915050565b600080600060608486031215611b5d57611b5c611735565b5b600084013567ffffffffffffffff811115611b7b57611b7a61173a565b5b611b8786828701611b16565b935050602084013567ffffffffffffffff811115611ba857611ba761173a565b5b611bb486828701611b16565b925050604084013567ffffffffffffffff811115611bd557611bd461173a565b5b611be186828701611b16565b9150509250925092565b6000602082019050611c006000830184611958565b92915050565b7f4f6e6c792061646d696e2063616e2063616c6c20746869730000000000000000600082015250565b6000611c3c601883611849565b9150611c4782611c06565b602082019050919050565b60006020820190508181036000830152611c6b81611c2f565b9050919050565b7f4e487b7100000000000000000000000000000000000000000000000000000000600052603260045260246000fd5b7f4e487b7100000000000000000000000000000000000000000000000000000000600052602260045260246000fd5b60006002820490506001821680611ce857607f821691505b602082108103611cfb57611cfa611ca1565b5b50919050565b7f4e487b7100000000000000000000000000000000000000000000000000000000600052601160045260246000fd5b6000611d3b826116f7565b915060008203611d4e57611d4d611d01565b5b600182039050919050565b7f496e76616c6964207469636b6574204944000000000000000000000000000000600082015250565b6000611d8f601183611849565b9150611d9a82611d59565b602082019050919050565b60006020820190508181036000830152611dbe81611d82565b9050919050565b7f596f7520646f6e2774206f776e2074686973207469636b657421000000000000600082015250565b6000611dfb601a83611849565b9150611e0682611dc5565b602082019050919050565b60006020820190508181036000830152611e2a81611dee565b9050919050565b7f496e76616c696420616464726573732100000000000000000000000000000000600082015250565b6000611e67601083611849565b9150611e7282611e31565b602082019050919050565b60006020820190508181036000830152611e9681611e5a565b9050919050565b7f526563697069656e7420616c7265616479206861732061207469636b65742100600082015250565b6000611ed3601f83611849565b9150611ede82611e9d565b602082019050919050565b60006020820190508181036000830152611f0281611ec6565b9050919050565b7f416c6c207469636b65747320736f6c6421000000000000000000000000000000600082015250565b6000611f3f601183611849565b9150611f4a82611f09565b602082019050919050565b60006020820190508181036000830152611f6e81611f32565b9050919050565b7f496e636f7272656374207061796d656e74210000000000000000000000000000600082015250565b6000611fab601283611849565b9150611fb682611f75565b602082019050919050565b60006020820190508181036000830152611fda81611f9e565b9050919050565b7f596f7520616c726561647920686176652061207469636b657421000000000000600082015250565b6000612017601a83611849565b915061202282611fe1565b602082019050919050565b600060208201905081810360008301526120468161200a565b9050919050565b600081905092915050565b60008190508160005260206000209050919050565b6000815461207a81611cd0565b612084818661204d565b9450600182166000811461209f57600181146120b4576120e7565b60ff19831686528115158202860193506120e7565b6120bd85612058565b60005b838110156120df578154818901526001820191506020810190506120c0565b838801955050505b50505092915050565b60006120fc828461206d565b915081905092915050565b7f5365617420616c72656164792074616b656e2100000000000000000000000000600082015250565b600061213d601383611849565b915061214882612107565b602082019050919050565b6000602082019050818103600083015261216c81612130565b9050919050565b60008190508160005260206000209050919050565b60006020601f8301049050919050565b600082821b905092915050565b6000600883026121d57fffffffffffffffffffffffffffffffffffffffffffffffffffffffffffffffff82612198565b6121df8683612198565b95508019841693508086168417925050509392505050565b6000819050919050565b600061221c612217612212846116f7565b6121f7565b6116f7565b9050919050565b6000819050919050565b61223683612201565b61224a61224282612223565b8484546121a5565b825550505050565b600090565b61225f612252565b61226a81848461222d565b505050565b5b8181101561228e57612283600082612257565b600181019050612270565b5050565b601f8211156122d3576122a481612173565b6122ad84612188565b810160208510156122bc578190505b6122d06122c885612188565b83018261226f565b50505b505050565b600082821c905092915050565b60006122f6600019846008026122d8565b1980831691505092915050565b600061230f83836122e5565b9150826002028217905092915050565b6123288261183e565b67ffffffffffffffff81111561234157612340611a19565b5b61234b8254611cd0565b612356828285612292565b600060209050601f8311600181146123895760008415612377578287015190505b6123818582612303565b8655506123e9565b601f19841661239786612173565b60005b828110156123bf5784890151825560018201915060208501945060208101905061239a565b868310156123dc57848901516123d8601f8916826122e5565b8355505b6001600288020188555050505b505050505050565b60006123fc826116f7565b9150612407836116f7565b925082820390508181111561241f5761241e611d01565b5b92915050565b6000612430826116f7565b91507fffffffffffffffffffffffffffffffffffffffffffffffffffffffffffffffff820361246257612461611d01565b5b600182019050919050565b7f43616e6e6f7420736574206c6f776572207468616e207469636b65747320736f60008201527f6c64000000000000000000000000000000000000000000000000000000000000602082015250565b60006124c9602283611849565b91506124d48261246d565b604082019050919050565b600060208201905081810360008301526124f8816124bc565b905091905056fea2646970667358221220172bf107bf7c0694be219ba89636c9696699a7e43dd6b8e6905f2b52bffbfc8964736f6c634300081c0033",
  "linkReferences": {},
  "deployedLinkReferences": {}
}